{
  "address": "0x3cC1078671dB38CfbEC40F5fB19596b8006719aC",
  "abi": [
    {
      "inputs": [
        {
          "internalType": "address",
          "name": "priceFeedAddress",
          "type": "address"
        }
      ],
      "stateMutability": "nonpayable",
      "type": "constructor"
    },
    {
      "inputs": [],
      "name": "CallFailed",
      "type": "error"
    },
    {
      "inputs": [],
      "name": "NotOwner",
      "type": "error"
    },
    {
      "stateMutability": "payable",
      "type": "fallback"
    },
    {
      "inputs": [],
      "name": "MIN_USD",
      "outputs": [
        {
          "internalType": "uint256",
          "name": "",
          "type": "uint256"
        }
      ],
      "stateMutability": "view",
      "type": "function"
    },
    {
      "inputs": [],
      "name": "fund",
      "outputs": [],
      "stateMutability": "payable",
      "type": "function"
    },
    {
      "inputs": [
        {
          "internalType": "uint256",
          "name": "",
          "type": "uint256"
        }
      ],
      "name": "funders",
      "outputs": [
        {
          "internalType": "address",
          "name": "",
          "type": "address"
        }
      ],
      "stateMutability": "view",
      "type": "function"
    },
    {
      "inputs": [
        {
          "internalType": "address",
          "name": "",
          "type": "address"
        }
      ],
      "name": "fundersToFunds",
      "outputs": [
        {
          "internalType": "uint256",
          "name": "",
          "type": "uint256"
        }
      ],
      "stateMutability": "view",
      "type": "function"
    },
    {
      "inputs": [],
      "name": "i_owner",
      "outputs": [
        {
          "internalType": "address",
          "name": "",
          "type": "address"
        }
      ],
      "stateMutability": "view",
      "type": "function"
    },
    {
      "inputs": [],
      "name": "i_priceFeed",
      "outputs": [
        {
          "internalType": "contract AggregatorV3Interface",
          "name": "",
          "type": "address"
        }
      ],
      "stateMutability": "view",
      "type": "function"
    },
    {
      "inputs": [],
      "name": "withdraw",
      "outputs": [],
      "stateMutability": "payable",
      "type": "function"
    },
    {
      "stateMutability": "payable",
      "type": "receive"
    }
  ],
  "transactionHash": "0x8d0e033b8b0e775422e236989780f114c9c18b9b487dbb7cc5aa7a5069bf9d73",
  "args": [
    "0xD4a33860578De61DBAbDc8BFdb98FD742fA7028e"
  ],
  "numDeployments": 1,
  "solcInputHash": "51e5bf1a4553ec130a0f8036012cee02",
  "bytecode": "0x60c060405234801561001057600080fd5b50604051610df6380380610df683398181016040528101906100329190610103565b3373ffffffffffffffffffffffffffffffffffffffff1660808173ffffffffffffffffffffffffffffffffffffffff16815250508073ffffffffffffffffffffffffffffffffffffffff1660a08173ffffffffffffffffffffffffffffffffffffffff168152505050610130565b600080fd5b600073ffffffffffffffffffffffffffffffffffffffff82169050919050565b60006100d0826100a5565b9050919050565b6100e0816100c5565b81146100eb57600080fd5b50565b6000815190506100fd816100d7565b92915050565b600060208284031215610119576101186100a0565b5b6000610127848285016100ee565b91505092915050565b60805160a051610c93610163600039600081816101b0015261051b0152600081816102ea01526105570152610c936000f3fe6080604052600436106100745760003560e01c8063b60d42881161004e578063b60d4288146100ed578063b9dc3a97146100f7578063dba6335f14610134578063dc0d3dff1461015f57610083565b8063213dbea21461008d5780633ccfd60b146100b8578063957b8956146100c257610083565b366100835761008161019c565b005b61008b61019c565b005b34801561009957600080fd5b506100a26102db565b6040516100af919061073f565b60405180910390f35b6100c06102e8565b005b3480156100ce57600080fd5b506100d7610519565b6040516100e491906107d9565b60405180910390f35b6100f561019c565b005b34801561010357600080fd5b5061011e60048036038101906101199190610837565b61053d565b60405161012b919061073f565b60405180910390f35b34801561014057600080fd5b50610149610555565b6040516101569190610873565b60405180910390f35b34801561016b57600080fd5b50610186600480360381019061018191906108ba565b610579565b6040516101939190610873565b60405180910390f35b60003490506802b5e3af16b18800006101de7f0000000000000000000000000000000000000000000000000000000000000000836105b890919063ffffffff16565b101561021f576040517f08c379a000000000000000000000000000000000000000000000000000000000815260040161021690610944565b60405180910390fd5b6000339080600181540180825580915050600190039060005260206000200160009091909190916101000a81548173ffffffffffffffffffffffffffffffffffffffff021916908373ffffffffffffffffffffffffffffffffffffffff16021790555080600160003373ffffffffffffffffffffffffffffffffffffffff1673ffffffffffffffffffffffffffffffffffffffff16815260200190815260200160002060008282546102d19190610993565b9250508190555050565b6802b5e3af16b188000081565b7f000000000000000000000000000000000000000000000000000000000000000073ffffffffffffffffffffffffffffffffffffffff163373ffffffffffffffffffffffffffffffffffffffff161461036d576040517f30cd747100000000000000000000000000000000000000000000000000000000815260040160405180910390fd5b60005b60008054905081101561041257600060016000808481548110610396576103956109c7565b5b9060005260206000200160009054906101000a900473ffffffffffffffffffffffffffffffffffffffff1673ffffffffffffffffffffffffffffffffffffffff1673ffffffffffffffffffffffffffffffffffffffff16815260200190815260200160002081905550808061040a906109f6565b915050610370565b50600067ffffffffffffffff81111561042e5761042d610a3e565b5b60405190808252806020026020018201604052801561045c5781602001602082028036833780820191505090505b506000908051906020019061047292919061067f565b5060003373ffffffffffffffffffffffffffffffffffffffff164760405161049990610a9e565b60006040518083038185875af1925050503d80600081146104d6576040519150601f19603f3d011682016040523d82523d6000602084013e6104db565b606091505b5050905080610516576040517f3204506f00000000000000000000000000000000000000000000000000000000815260040160405180910390fd5b50565b7f000000000000000000000000000000000000000000000000000000000000000081565b60016020528060005260406000206000915090505481565b7f000000000000000000000000000000000000000000000000000000000000000081565b6000818154811061058957600080fd5b906000526020600020016000915054906101000a900473ffffffffffffffffffffffffffffffffffffffff1681565b6000806105c4836105ee565b9050670de0b6b3a764000081856105db9190610ab3565b6105e59190610b24565b91505092915050565b6000808273ffffffffffffffffffffffffffffffffffffffff1663feaf968c6040518163ffffffff1660e01b815260040160a060405180830381865afa15801561063c573d6000803e3d6000fd5b505050506040513d601f19601f820116820180604052508101906106609190610be2565b5050509150506402540be400816106779190610ab3565b915050919050565b8280548282559060005260206000209081019282156106f8579160200282015b828111156106f75782518260006101000a81548173ffffffffffffffffffffffffffffffffffffffff021916908373ffffffffffffffffffffffffffffffffffffffff1602179055509160200191906001019061069f565b5b5090506107059190610709565b5090565b5b8082111561072257600081600090555060010161070a565b5090565b6000819050919050565b61073981610726565b82525050565b60006020820190506107546000830184610730565b92915050565b600073ffffffffffffffffffffffffffffffffffffffff82169050919050565b6000819050919050565b600061079f61079a6107958461075a565b61077a565b61075a565b9050919050565b60006107b182610784565b9050919050565b60006107c3826107a6565b9050919050565b6107d3816107b8565b82525050565b60006020820190506107ee60008301846107ca565b92915050565b600080fd5b60006108048261075a565b9050919050565b610814816107f9565b811461081f57600080fd5b50565b6000813590506108318161080b565b92915050565b60006020828403121561084d5761084c6107f4565b5b600061085b84828501610822565b91505092915050565b61086d816107f9565b82525050565b60006020820190506108886000830184610864565b92915050565b61089781610726565b81146108a257600080fd5b50565b6000813590506108b48161088e565b92915050565b6000602082840312156108d0576108cf6107f4565b5b60006108de848285016108a5565b91505092915050565b600082825260208201905092915050565b7f6d696e2066756e64696e67206973203530205553440000000000000000000000600082015250565b600061092e6015836108e7565b9150610939826108f8565b602082019050919050565b6000602082019050818103600083015261095d81610921565b9050919050565b7f4e487b7100000000000000000000000000000000000000000000000000000000600052601160045260246000fd5b600061099e82610726565b91506109a983610726565b92508282019050808211156109c1576109c0610964565b5b92915050565b7f4e487b7100000000000000000000000000000000000000000000000000000000600052603260045260246000fd5b6000610a0182610726565b91507fffffffffffffffffffffffffffffffffffffffffffffffffffffffffffffffff8203610a3357610a32610964565b5b600182019050919050565b7f4e487b7100000000000000000000000000000000000000000000000000000000600052604160045260246000fd5b600081905092915050565b50565b6000610a88600083610a6d565b9150610a9382610a78565b600082019050919050565b6000610aa982610a7b565b9150819050919050565b6000610abe82610726565b9150610ac983610726565b9250828202610ad781610726565b91508282048414831517610aee57610aed610964565b5b5092915050565b7f4e487b7100000000000000000000000000000000000000000000000000000000600052601260045260246000fd5b6000610b2f82610726565b9150610b3a83610726565b925082610b4a57610b49610af5565b5b828204905092915050565b600069ffffffffffffffffffff82169050919050565b610b7481610b55565b8114610b7f57600080fd5b50565b600081519050610b9181610b6b565b92915050565b6000819050919050565b610baa81610b97565b8114610bb557600080fd5b50565b600081519050610bc781610ba1565b92915050565b600081519050610bdc8161088e565b92915050565b600080600080600060a08688031215610bfe57610bfd6107f4565b5b6000610c0c88828901610b82565b9550506020610c1d88828901610bb8565b9450506040610c2e88828901610bcd565b9350506060610c3f88828901610bcd565b9250506080610c5088828901610b82565b915050929550929590935056fea2646970667358221220e8d7ca4762e993d373288ac31163d079c5e73aa849c60e10cec9848964b4112364736f6c63430008110033",
  "devdoc": {
    "kind": "dev",
    "methods": {},
    "version": 1
  },
  "userdoc": {
    "kind": "user",
    "methods": {},
    "version": 1
  },
  "storageLayout": {
    "storage": [
      {
        "astId": 329,
        "contract": "contracts/FundMe.sol:FundMe",
        "label": "funders",
        "offset": 0,
        "slot": "0",
        "type": "t_array(t_address)dyn_storage"
      },
      {
        "astId": 333,
        "contract": "contracts/FundMe.sol:FundMe",
        "label": "fundersToFunds",
        "offset": 0,
        "slot": "1",
        "type": "t_mapping(t_address,t_uint256)"
      }
    ],
    "types": {
      "t_address": {
        "encoding": "inplace",
        "label": "address",
        "numberOfBytes": "20"
      },
      "t_array(t_address)dyn_storage": {
        "base": "t_address",
        "encoding": "dynamic_array",
        "label": "address[]",
        "numberOfBytes": "32"
      },
      "t_mapping(t_address,t_uint256)": {
        "encoding": "mapping",
        "key": "t_address",
        "label": "mapping(address => uint256)",
        "numberOfBytes": "32",
        "value": "t_uint256"
      },
      "t_uint256": {
        "encoding": "inplace",
        "label": "uint256",
        "numberOfBytes": "32"
      }
    }
  }
}